:1000000012C019C018C017C016C015C014C013C044
:1000100012C011C010C00FC00EC00DC00CC00BC06C
:100020000AC009C008C011241FBECFE5D4E0DEBF5E
:10003000CDBF4BD0AAC0E4CF8FEF87BB18BA81BB2E
:1000400012BAA098A198A29AA89AA99A08959899E4
:1000500008C08FE19EE40197F1F700C0000081E045
:10006000089580E00895999908C08FE19EE4019772
:10007000F1F700C0000081E0089580E008958AEA69
:1000800088BB8FE19EE40197F1F700C0000018BA29
:1000900088B3856588BB8FE19EE40197F1F700C0C6
:1000A000000008958AEA82BB8FE19EE40197F1F790
:1000B00000C0000012BA82B3856582BB8FE19EE466
:1000C0000197F1F700C000000895B6DF00E010E0EE
:1000D000D0E0C0E0F12CCC24C394D12CEE24E394E6
:1000E00001C00F2DC83009F04DC0D83029F1AA9AAF
:1000F000C7E0C5DFC150E9F72FEF80E792E021505C
:1001000080409040E1F700C00000AA9818BA12BAE7
:10011000D0E012C0AA9AC7E0C5DFC150E9F72FEFBF
:1001200080E792E0215080409040E1F700C000005D
:10013000AA9812BA18BAD0E08ADF882379F0111190
:100140000EC028B3C6010C2E02C0880F991F0A9456
:10015000E2F7822B88BBCF5F1E2D01C01F2D83DFEE
:10016000882309F4BECF0111BDCF22B3C6010D2EE5
:1001700002C0880F991F0A94E2F7822B82BBDF5FCF
:0E0180000E2DB0CFD830C1F6C5CFF894FFCF0A
:00000001FF
